{
  "transactions": [
    {
      "hash": "0x8c4b70aecf31c63436a6de23e86555e4d18094a5936690659dff113edb4427bb",
      "transactionType": "CALL",
      "contractName": null,
      "contractAddress": "0x43414bfbe80cffc83329217c55de433e473a717f",
      "function": "setPriceFeed(address,address)",
      "arguments": [
        "0x0000000000000000000000000000000000000000",
        "0x4aDC67696bA383F43DD60A9e78F2C97Fbbfc7cb1"
      ],
      "transaction": {
        "from": "0x1ad52be59e252f16f80a92989f6668982a5a6a7d",
        "to": "0x43414bfbe80cffc83329217c55de433e473a717f",
        "gas": "0x10302",
        "value": "0x0",
        "input": "0x76e1128600000000000000000000000000000000000000000000000000000000000000000000000000000000000000004adc67696ba383f43dd60a9e78f2c97fbbfc7cb1",
        "nonce": "0x1c",
        "chainId": "0x14a34"
      },
      "additionalContracts": [],
      "isFixedGasLimit": false
    },
    {
      "hash": "0xe0e000866c1610b97b2b5be3b030075248b0b6374068eaf387b1fe7729fa7e3a",
      "transactionType": "CALL",
      "contractName": null,
      "contractAddress": "0x52cbc9331983b8bc9b012eebf50e43ad4c358f46",
      "function": "mint(address,uint256)",
      "arguments": [
        "0x43414bFBE80CFfC83329217c55dE433e473a717f",
        "1000000000000000000000000"
      ],
      "transaction": {
        "from": "0x1ad52be59e252f16f80a92989f6668982a5a6a7d",
        "to": "0x52cbc9331983b8bc9b012eebf50e43ad4c358f46",
        "gas": "0x121ec",
        "value": "0x0",
        "input": "0x40c10f1900000000000000000000000043414bfbe80cffc83329217c55de433e473a717f00000000000000000000000000000000000000000000d3c21bcecceda1000000",
        "nonce": "0x1d",
        "chainId": "0x14a34"
      },
      "additionalContracts": [],
      "isFixedGasLimit": false
    }
  ],
  "receipts": [
    {
      "status": "0x1",
      "cumulativeGasUsed": "0x83670e",
      "logs": [
        {
          "address": "0x43414bfbe80cffc83329217c55de433e473a717f",
          "topics": [
            "0xdbfe615a6bd8a486c3935d849481f53ecb79c5b4d0ced94d81af3124bd76e937",
            "0x0000000000000000000000000000000000000000000000000000000000000000",
            "0x0000000000000000000000004adc67696ba383f43dd60a9e78f2c97fbbfc7cb1"
          ],
          "data": "0x",
          "blockHash": "0x7a0ac30f41de100aa168e430e3dc2ba3325c0e0084d627ae07ab566071a28668",
          "blockNumber": "0x1a0009b",
          "transactionHash": "0x8c4b70aecf31c63436a6de23e86555e4d18094a5936690659dff113edb4427bb",
          "transactionIndex": "0x1d",
          "logIndex": "0xff",
          "removed": false
        }
      ],
      "logsBloom": "0x00000000000000000000000000000000800000000000000000000000000000000000000000000000000000000000000000000000000000000000000000000000000000000000000000400000000000000000000000000000000000000000000000000000020000000020000000000800000000000000000000000000000000000000000000000000000010000000000000000000000000000000000000000000000010000000000000000000000000000000000000000000000000000000000000000000000100000000000000000000000000000000000000020000000024000000000000008000000000000000000000000000000000000000000000000000",
      "type": "0x2",
      "transactionHash": "0x8c4b70aecf31c63436a6de23e86555e4d18094a5936690659dff113edb4427bb",
      "transactionIndex": "0x1d",
      "blockHash": "0x7a0ac30f41de100aa168e430e3dc2ba3325c0e0084d627ae07ab566071a28668",
      "blockNumber": "0x1a0009b",
      "gasUsed": "0xbb85",
      "effectiveGasPrice": "0xd827c",
      "from": "0x1ad52be59e252f16f80a92989f6668982a5a6a7d",
      "to": "0x43414bfbe80cffc83329217c55de433e473a717f",
      "contractAddress": null,
      "l1BaseFeeScalar": "0x44d",
      "l1BlobBaseFee": "0x1",
      "l1BlobBaseFeeScalar": "0xa118b",
      "l1Fee": "0x4a52",
      "l1GasPrice": "0x2a0b",
      "l1GasUsed": "0x640"
    },
    {
      "status": "0x1",
      "cumulativeGasUsed": "0x8438f5",
      "logs": [
        {
          "address": "0x52cbc9331983b8bc9b012eebf50e43ad4c358f46",
          "topics": [
            "0xddf252ad1be2c89b69c2b068fc378daa952ba7f163c4a11628f55a4df523b3ef",
            "0x0000000000000000000000000000000000000000000000000000000000000000",
            "0x00000000000000000000000043414bfbe80cffc83329217c55de433e473a717f"
          ],
          "data": "0x00000000000000000000000000000000000000000000d3c21bcecceda1000000",
          "blockHash": "0x7a0ac30f41de100aa168e430e3dc2ba3325c0e0084d627ae07ab566071a28668",
          "blockNumber": "0x1a0009b",
          "transactionHash": "0xe0e000866c1610b97b2b5be3b030075248b0b6374068eaf387b1fe7729fa7e3a",
          "transactionIndex": "0x1e",
          "logIndex": "0x100",
          "removed": false
        }
      ],
      "logsBloom": "0x00000000000000000000000000000000000000000000000000000000002200000000000000000000000000080000000000000000000000000000000000000000000000000000000000000008000000000004000000000000000000000000000000000000020000000000000000020800000000000000000000000010000000000000000000000000000000000000000000000000000000000000000000000000000000000000000000000000000000000000000000000000000010000000000000000002000000000000000000000000000000000000000000000000000020000000000000000000000000000000000000000000000000000000000000000000",
      "type": "0x2",
      "transactionHash": "0xe0e000866c1610b97b2b5be3b030075248b0b6374068eaf387b1fe7729fa7e3a",
      "transactionIndex": "0x1e",
      "blockHash": "0x7a0ac30f41de100aa168e430e3dc2ba3325c0e0084d627ae07ab566071a28668",
      "blockNumber": "0x1a0009b",
      "gasUsed": "0xd1e7",
      "effectiveGasPrice": "0xd827c",
      "from": "0x1ad52be59e252f16f80a92989f6668982a5a6a7d",
      "to": "0x52cbc9331983b8bc9b012eebf50e43ad4c358f46",
      "contractAddress": null,
      "l1BaseFeeScalar": "0x44d",
      "l1BlobBaseFee": "0x1",
      "l1BlobBaseFeeScalar": "0xa118b",
      "l1Fee": "0x4a52",
      "l1GasPrice": "0x2a0b",
      "l1GasUsed": "0x640"
    }
  ],
  "libraries": [],
  "pending": [],
  "returns": {},
  "timestamp": 1750294551,
  "chain": 84532,
  "commit": "9635f6e"
}